:100000000C9446000C947F000C94D0000C94650076
:100010000C9465000C9465000C9465000C946500CC
:100020000C9465000C9465000C9465000C946500BC
:100030000C9465000C9465000C9467000C946500AA
:100040000C9465000C9465000C9465000C9465009C
:100050000C9465000C9465000C9465000C9465008C
:100060000C9465000C9465000C9465000C9465007C
:100070000C9465000C9465000C9465000C9465006C
:100080000C9465000C9465000C94650011241FBE4F
:10009000CFEFD0E1DEBFCDBF11E0A0E0B1E0EAE8F4
:1000A000FEE000E00BBF02C007900D92A233B10743
:1000B000D9F711E0A2E3B1E001C01D92AC34B10761
:1000C000E1F70E944E010C9443070C9400001F922C
:1000D0000F920FB60F9211248F9385B3882319F4D2
:1000E0008FEF85BB04C085B38F3F09F415BA1DBCE3
:1000F0001CBC8F910F900FBE0F901F9018951F92F0
:100100000F920FB60F920BB60F9211248F939F93FD
:10011000EF93FF93809136019091370181349105DF
:10012000D9F4809144019091450101969093450145
:10013000809344018830910524F01092450110927B
:100140004401E0914401F0914501EE0FFF1FEA5F89
:10015000FE4F808185BB19C0809146019091470177
:100160008230910591F480910001909101010196F6
:1001700090930101809300018531910534F084E171
:1001800090E09093010180930001FF91EF919F9186
:100190008F910F900BBE0F900FBE0F901F90189570
:1001A0001F920F920FB60F920BB60F9211242F933E
:1001B0003F934F935F936F937F938F939F93AF93EF
:1001C000BF93EF93FF938091360190913701813473
:1001D0009105E1F48091440190914501019790933C
:1001E00045018093440197FF06C087E090E090931B
:1001F000450180934401E0914401F0914501EE0FE7
:10020000FF1FEA5FFE4F808185BB35C080914601AC
:10021000909147018230910571F5609102017091D2
:100220000301809104019091050120E030E040E855
:100230005FE30E94F404262F372F482F592F209375
:10024000020130930301409304015093050120E023
:1002500030E040E85FE30E94250587FF0CC080E0A6
:1002600090E0A0E8BFE38093020190930301A09384
:100270000401B0930501FF91EF91BF91AF919F9160
:100280008F917F916F915F914F913F912F910F903F
:100290000BBE0F900FBE0F901F901895FF920F93FB
:1002A0001F93CF93DF930E94F5020E94FA0101E4AD
:1002B00010E0FF24FA940E94080290933301809387
:1002C000320190933901809338018130910529F5ED
:1002D000109337010093360120C080E40E94FE0293
:1002E00080E80E9403030E94850290933B01809363
:1002F0003A01FC01EE0FFF1FEA5FFE4F208125BB94
:1003000090934501809344010E9408029093470115
:10031000809346018230910599F18091320190914C
:10032000330181309105C9F22BC080E80E94FE02A2
:1003300080E40E940303C0E0D0E011C015BA209110
:10034000480130914901821B930B0E94DB01F5BAF1
:1003500080914801909149010E94DB012196809192
:10036000000190910101C817D90744F30E940802C7
:1003700090934701809346018130910509F49BCF0A
:1003800080913201909133018230910571F293CFC7
:1003900080E487B987E886B90895806487B9369A7A
:1003A000349BFECF349A84B195B1392F20E0280FC9
:1003B000311DC901089520E030E003C000002F5F27
:1003C0003F4F28173907D0F308950F931F93CF930A
:1003D000DF938C01C0E0D0E005C087E490E00E948C
:1003E000DB012196C017D107C0F3DF91CF911F9198
:1003F0000F9108958AE080936A001ABE83E089BF56
:100400007894089590B38923089596B38923089525
:100410003BEF27EF9FEE32BB80B3807E8036C9F082
:10042000803AD1F0803CD9F022BB80B3807E803608
:10043000C9F0803AD1F0803CD9F092BB80B3807E85
:100440008036C9F0803AD1F0803C29F728E030E0CE
:1004500017C021E030E014C024E030E011C027E0F4
:1004600030E00EC023E030E00BC026E030E008C0F2
:1004700029E030E005C022E030E002C025E030E0B5
:10048000C9010895EF92FF92CF93DF9392988AE08B
:1004900090E00E94DB01859B03C0C0E0D0E002C079
:1004A000C3E0D0E0869902C0C6E0D0E0879902C0E0
:1004B000C9E0D0E0929A93988AE090E00E94DB0134
:1004C000859902C0C2E0D0E0869902C0C5E0D0E0C4
:1004D000879902C0C8E0D0E0939A94988AE090E0AF
:1004E0000E94DB01859902C0C1E0D0E0869902C07C
:1004F000C4E0D0E0879902C0C7E0D0E0949ACE0172
:10050000DF91CF91FF90EF9008953BEF27EF9FEEA3
:1005100032BB80B3807E803A99F0803CA1F022BB50
:1005200080B3807E803A91F0803C99F092BB80B39A
:10053000807E803A89F0803C59F722E030E00EC09E
:1005400024E030E00BC021E030E008C026E030E0DD
:1005500005C023E030E002C025E030E0C901089585
:100560001BB888E18AB986E08093950010929000CC
:1005700089E189B908955D9BFECF8CB908955F9B91
:10058000FECF8CB10895EF92FF92CF93DF93E82EC8
:10059000E7017E01F92EE70102C00E94BB028991AA
:1005A0008823D9F7DF91CF91FF90EF9008951F93A3
:1005B000CF93DF9364E670E00E94F906EC01862F8A
:1005C000805D0E94BB02CE016AE070E00E94F906E5
:1005D000182F862F805D0E94BB02812F805D0E94B4
:1005E000BB02DF91CF911F9108958FEF8BBB8ABB28
:1005F00085BB84BB87BB8CE181BB08959BB3809591
:1006000089238BBB08959BB3982B9BBB08958134A2
:1006100039F4E62FF0E0EA5EFE4F80818BBB08954F
:10062000833431F4E62FF0E0EA5EFE4F808185BB33
:1006300008956AE070E00E94E50626E131E0620F6D
:10064000731FFB0140814BBB280F391FF9018081CB
:1006500085BB08951FBC84E08EBD87BF8EEE95E8F4
:100660009DBD8CBD7894089592988AE090E00E9498
:10067000DB01859904C080EA90E09BBD8ABD869924
:1006800004C08EE291E09BBD8ABD879904C08DEBCA
:1006900091E09BBD8ABD929A93988AE090E00E9477
:1006A000DB01859904C08FEC90E09BBD8ABD8699E3
:1006B00004C08EE591E09BBD8ABD879904C08DEE94
:1006C00091E09BBD8ABD939A94988AE090E00E9445
:1006D000DB01859904C08FEF90E09BBD8ABD8699B0
:1006E00004C08EE891E09BBD8ABD879904C08CE16F
:1006F00092E09BBD8ABD949A0895A0E0B0E0E3E843
:10070000F3E00C941007FC01EA018081823008F4C8
:1007100038C1DB019C91923008F430C1843059F427
:10072000943009F02EC1918111968C9111979817F0
:1007300009F021C126C1943009F420C19230B1F4EE
:10074000823009F01EC1CA01AF0128E0DA010D9024
:10075000AD01DC010D92CD012150C1F7DB011196F5
:100760008C9111979181892389830AC1823009F480
:1007700005C1C280D380DB0112966D907C901397E7
:1007800024813581468157811496ED90FD900D911D
:100790001C911797C601861997095C0197FF04C041
:1007A000AA24BB24A81AB90AB0E2AB16B1040CF013
:1007B00061C0181619066CF5370148010A2C04C0EF
:1007C00096948794779467940A94D2F781E090E0A6
:1007D000A0E0B0E00A2C04C0880F991FAA1FBB1F1D
:1007E0000A94D2F70197A109B1098E219F21A02374
:1007F000B123EE24FF248701E3940097A105B105FE
:1008000019F4EE24FF248701E628F728082919297E
:100810003CC00097D1F1CA0CDB1C39014A010A2CFB
:1008200004C096948794779467940A94D2F781E0F1
:1008300090E0A0E0B0E00A2C04C0880F991FAA1F26
:10084000BB1F0A94D2F70197A109B1098223932310
:10085000A423B52321E030E040E050E00097A1055B
:10086000B10519F420E030E0A901262937294829EB
:1008700059290BC06C147D0424F4EE24FF24870155
:1008800004C0630120E030E0A9018181FB01918176
:10089000891709F445C0882349F0D801C701821B94
:1008A000930BA40BB50B9C01AD0104C02E193F099D
:1008B000400B510B57FD04C01982DB82CA820BC06A
:1008C00081E08983DB82CA825095409530952195DD
:1008D0003F4F4F4F5F4F2C833D834E835F830DC04F
:1008E000880F991FAA1FBB1F8C839D83AE83BF8374
:1008F0008A819B8101979B838A838C819D81AE81B4
:10090000BF819C01AD0121503040404050402F3FFD
:10091000EFEF3E07EFEF4E07EFE35E0708F30BC084
:100920008983DB82CA822E0D3F1D401F511F2C83FD
:100930003D834E835F8383E088832C813D814E819C
:100940005F8157FF1DC0DA01C90181709070A070EE
:10095000B0705695479537952795822B932BA42BEE
:10096000B52B8C839D83AE83BF838A819B81019647
:100970009B838A8305C0EAE2F1E003C0FB0101C06A
:10098000FE01CF01CDB7DEB7EEE00C942C07A0E25C
:10099000B0E0EDECF4E00C94180769837A838B8364
:1009A0009C832D833E834F83588789E0E82EF12C6A
:1009B000EC0EFD1ECE010196B7010E9423068E01AA
:1009C0000F5E1F4FCE010596B8010E942306C70196
:1009D000B801AE01475E5F4F0E947D030E9455053E
:1009E000A096E6E00C943407A0E2B0E0EAEFF4E071
:1009F0000C94180769837A838B839C832D833E83B1
:100A00004F8358878E01075F1F4FCE010196B801B3
:100A10000E94230691E1E92EF12CEC0EFD1ECE0181
:100A20000596B7010E9423068A8991E089278A8B5F
:100A3000C801B701AE01475E5F4F0E947D030E946F
:100A40005505A096E6E00C943407A8E1B0E0EBE28F
:100A5000F5E00C94180769837A838B839C832D833C
:100A60003E834F8358878E01075F1F4FCE0101964B
:100A7000B8010E94230681E1E82EF12CEC0EFD1E48
:100A8000CE010596B7010E9423068985823040F089
:100A90008989823028F0C801B7010E948C0601C004
:100AA00081E06896E6E00C943407EF92FF920F9392
:100AB0001F93CF93DF93FC012481358146815781B9
:100AC00061818081823020F44061EFEFF0E0A3C0CB
:100AD000843009F49BC0823009F492C0211531059D
:100AE0004105510509F48FC00280F381E02D8FEF9D
:100AF000E238F8070CF05AC0C2E8DFEFCE1BDF0B7C
:100B0000CA31D1056CF579018A010C2E04C0169505
:100B10000795F794E7940A94D2F781E090E0A0E07B
:100B2000B0E00C2E04C0880F991FAA1FBB1F0A94A7
:100B3000D2F70197A109B10982239323A423B523F6
:100B400021E030E040E050E00097A105B10519F444
:100B500020E030E0A9012E293F29402B512B03C072
:100B600020E030E0A901DA01C9018F779070A07010
:100B7000B07080349105A105B10539F427FF09C093
:100B8000205C3F4F4F4F5F4F04C0215C3F4F4F4FA2
:100B90005F4FE1E0F0E0203080E0380780E0480778
:100BA00080E4580728F5E0E0F0E022C0E038F105E5
:100BB0006CF5E158FF4FDA01C9018F779070A07092
:100BC000B07080349105A105B10539F427FF09C043
:100BD000205C3F4F4F4F5F4F04C0215C3F4F4F4F52
:100BE0005F4F57FF05C05695479537952795319626
:100BF00087E056954795379527958A95D1F70BC08D
:100C0000E0E0F0E005C0E0E0F0E005C0EFEFF0E08C
:100C100020E030E0A9018E2F879588278795942FB3
:100C20009F77679566276795E695E22EA92FA82BF3
:100C3000FE2FF62B622F732F8A2F9F2FCDB7DEB793
:100C4000E6E00C943407DC01FB012C9111963C91F9
:100C5000119712968C911297482F4F7750E0982F4A
:100C6000991F9927991F13966C911397862F880FB8
:100C7000892B90E0661F6627661F6183009739F510
:100C8000211531054105510511F482E029C082E8A2
:100C90009FEF9383828367E0220F331F441F551F0A
:100CA0006A95D1F783E0808309C0220F331F441F68
:100CB000551F82819381019793838283203080E046
:100CC000380780E0480780E4580778F320C08F3F5A
:100CD000910579F4211531054105510519F484E098
:100CE0008083089544FF03C081E0808310C0108298
:100CF0000EC08F5790409383828383E0808387E088
:100D0000220F331F441F551F8A95D1F75064248347
:100D10003583468357830895FC01DB01908192302F
:100D200008F449C08C91823008F445C0943051F4E5
:100D300061818430B1F511962C91119730E0261B1A
:100D4000310941C0843021F0923041F48230B1F158
:100D500011968C9111978823A1F12DC06181823069
:100D600001F111968C9111976817D9F42281338182
:100D700012968D919C9113978217930794F02817E0
:100D80003907BCF0248135814681578114968D91B5
:100D90009D910D90BC91A02D82179307A407B507D4
:100DA00018F4662341F00DC0281739074A075B077E
:100DB00028F4662331F021E030E005C020E030E087
:100DC00002C02FEF3FEFC9010895AA1BBB1B51E1E1
:100DD00007C0AA1FBB1FA617B70710F0A61BB70BAB
:100DE000881F991F5A95A9F780959095BC01CD0150
:100DF000089597FB092E07260AD077FD04D0E5DF7A
:100E000006D000201AF4709561957F4F0895F6F78B
:100E1000909581959F4F08952F923F924F925F92A8
:100E20006F927F928F929F92AF92BF92CF92DF92FA
:100E3000EF92FF920F931F93CF93DF93CDB7DEB75F
:100E4000CA1BDB0B0FB6F894DEBF0FBECDBF0994F3
:100E50002A88398848885F846E847D848C849B844A
:100E6000AA84B984C884DF80EE80FD800C811B8158
:100E7000AA81B981CE0FD11D0FB6F894DEBF0FBE87
:0A0E8000CDBFED010895F894FFCFF7
:100E8A000A000000A040FE00FD00FB00F700EF0092
:100E9A00DF00BF007F00C0F9A4B0999282F8809069
:100EAA004079243019120278001000000000000076
:020EBA00000036
:00000001FF
