:100000000C9446000C9465000C9465000C946500FB
:100010000C9465000C9465000C9465000C946500CC
:100020000C9465000C9465000C9465000C946500BC
:100030000C9465000C9465000C9465000C946500AC
:100040000C9465000C9465000C9465000C9465009C
:100050000C9465000C9465000C9465000C9465008C
:100060000C9465000C9465000C9465000C9465007C
:100070000C9465000C9465000C9465000C9465006C
:100080000C9465000C9465000C94650011241FBE4F
:10009000CFEFD0E1DEBFCDBF11E0A0E0B1E0E8E7F7
:1000A000F1E000E00BBF02C007900D92A230B10753
:1000B000D9F711E0A2E0B1E001C01D92A430B10770
:1000C000E1F70E94A4000C94BA000C94000084E1B3
:1000D000EFE4F3EC3197F1F700C000008150C1F775
:1000E00008959BB3809589238BBB08959BB3982B70
:1000F0009BBB08958FEF8BBB8ABB85BB84BB8CE118
:1001000081BB089590B38923089580910001809563
:100110009091020189238BBB8695806880930201B0
:1001200008958091000180959091020189238BBBF5
:10013000880F8093020108951BBA0E9467008FEF19
:100140008BBB0E94670008950E947A008091000195
:100150000E94710080B380FD03C00E948500FACF29
:1001600080B381FD03C00E949100F4CF8FEF0E9405
:080170007600F0CFF894FFCFF8
:02017800020083
:00000001FF
