:100000000C9446000C946F000C94CE000C94650088
:100010000C9465000C9465000C9465000C946500CC
:100020000C9465000C9465000C9465000C946500BC
:100030000C9465000C9465000C9465000C946500AC
:100040000C9465000C9465000C9465000C9465009C
:100050000C9465000C9465000C9465000C9465008C
:100060000C9465000C9465000C9465000C9465007C
:100070000C9465000C9465000C9465000C9465006C
:100080000C9465000C9465000C94650011241FBE4F
:10009000CFEFD0E1DEBFCDBF11E0A0E0B1E0ECEFEB
:1000A000F2E000E00BBF02C007900D92AA30B1074A
:1000B000D9F711E0AAE0B1E001C01D92AC30B10760
:1000C000E1F70E94F8000C947C010C9400008AE097
:1000D00080936A001ABE83E089BF789408951F92C6
:1000E0000F920FB60F920BB60F9211241F932F93FE
:1000F0003F934F935F936F937F938F939F93AF93B0
:10010000BF93EF93FF9380916A008A3011F51BC073
:1001100080910B0190E00E94570188EE93E00E94CD
:10012000220180910B018F5F80930B0188EE93E099
:100130000E94220180910B01843610F010920B0175
:1001400010936A0001C01BE080916A008A3001F3BD
:1001500011C080916A008B3059F482E080936A006C
:1001600080910B0190E00E94570110920A0102C099
:100170008FEF8BBBFF91EF91BF91AF919F918F91CB
:100180007F916F915F914F913F912F911F910F90B0
:100190000BBE0F900FBE0F901F9018951F920F92DD
:1001A0000FB60F920BB60F9211242F933F934F93DC
:1001B0005F936F937F938F939F93AF93BF93EF93CF
:1001C000FF9380E090E00E945701FF91EF91BF9173
:1001D000AF919F918F917F916F915F914F913F91DF
:1001E0002F910F900BBE0F900FBE0F901F90189580
:1001F0001F93CF93DF930E9437010E94670080E036
:1002000090E00E94570110E0C1E0D0E0CE01012E45
:1002100002C0880F991F0A94E2F780958BBB8CED82
:1002200095E00E9422011F5F183080F310E0EECFAE
:1002300020E030E003C000002F5F3F4F2817390750
:10024000D0F308950F931F93CF93DF938C01C0E0F9
:10025000D0E005C087E490E00E9418012196C01705
:10026000D107C0F3DF91CF911F910F9108958FEFC8
:100270008ABB84BB11BA08959BB3809589238BBB3D
:1002800008959BB3982B9BBB0895813439F4E62FD6
:10029000F0E0E050FF4F80818BBB0895833431F450
:1002A000E62FF0E0E050FF4F808185BB08956AE0C3
:1002B00070E00E94680120E031E0620F731FFB01D3
:1002C00040814BBB280F391FF901808185BB089500
:1002D000AA1BBB1B51E107C0AA1FBB1FA617B7076C
:1002E00010F0A61BB70B881F991F5A95A9F7809588
:0C02F0009095BC01CD010895F894FFCF5B
:0A02FC00C0F9A4B0999282F8809036
:00000001FF
