:100000000C9446000C945D000C945D000C945D0013
:100010000C945D000C945D000C945D000C945D00EC
:100020000C945D000C945D000C945D000C945D00DC
:100030000C945D000C945D000C945D000C945D00CC
:100040000C945D000C945D000C945D000C945D00BC
:100050000C945D000C945D000C945D000C945D00AC
:100060000C945D000C945D000C945D000C945D009C
:100070000C945D000C945D000C945D000C945D008C
:100080000C945D000C945D000C945D0011241FBE67
:10009000CFEFD0E1DEBFCDBF11E0A0E0B1E0E8EDF1
:1000A000F1E000E00BBF02C007900D92AA30B1074B
:1000B000D9F70E94A3000C94EA000C940000EF9280
:1000C000FF92CF93DF9392988AE090E00E94CB005A
:1000D00080B3869B07C0C1E0D0E085FF05C0C0E0CB
:1000E000D0E002C0C4E0D0E0879902C0C7E0D0E011
:1000F000929A93988AE090E00E94CB00859902C082
:10010000C2E0D0E0869902C0C5E0D0E0879902C085
:10011000C8E0D0E0939A94988AE090E00E94CB00E7
:10012000859902C0C3E0D0E0869902C0C6E0D0E065
:10013000879902C0C9E0D0E0949ACE01DF91CF91B7
:10014000FF90EF900895EF92FF920F931F93DF932C
:10015000CF93CDB7DEB72A970FB6F894DEBF0FBEA8
:10016000CDBFDE011196E0E0F1E08AE001900D9252
:100170008150E1F78CE1E82EFF24FA948E010F5FA5
:100180001F4FE1BAF4BA0E945F00F801E80FF91FAF
:10019000808185BBF6CF20E030E003C000002F5FF8
:1001A0003F4F28173907D0F308950F931F93CF932C
:1001B000DF938C01C0E0D0E005C087E490E00E94AE
:1001C000CB002196C017D107C0F3DF91CF911F91CB
:0801D0000F910895F894FFCF90
:0A01D800C0F9A4B0999282D8809873
:00000001FF
