:100000000C9446000C94C3000C94E2000C94650020
:100010000C9465000C9465000C9465000C946500CC
:100020000C9465000C9465000C9465000C946500BC
:100030000C9465000C9465000C9467000C946500AA
:100040000C9465000C9465000C9465000C9465009C
:100050000C9465000C9465000C9465000C9465008C
:100060000C9465000C9465000C9465000C9465007C
:100070000C9465000C9465000C9465000C9465006C
:100080000C9465000C9465000C94650011241FBE4F
:10009000CFEFD0E1DEBFCDBF11E0A0E0B1E0E0E8FE
:1000A000F3E000E00BBF02C007900D92A431B1074E
:1000B000D9F711E0A4E1B1E001C01D92A831B10768
:1000C000E1F70E94F0000C94BE010C9400001F9216
:1000D0000F920FB60F920BB60F9211242F933F93EE
:1000E0004F935F936F937F938F939F93AF93BF9340
:1000F000EF93FF93F8948091140190911501813052
:10010000910559F481E4609116010E94410183E454
:10011000609117010E942F011EC081E460911601B9
:100120000E94410183E4609117010E942F01809198
:1001300017018F5F809317018A3038F08091160184
:100140008F5F8093160110921701809116018A30FB
:1001500010F01092160186E997EE9DBD8CBD789443
:10016000FF91EF91BF91AF919F918F917F916F918F
:100170005F914F913F912F910F900BBE0F900FBE4B
:100180000F901F9018951F920F920FB60F92112487
:100190008F939F938091140190911501009739F4EA
:1001A00081E090E0909315018093140104C01092B7
:1001B0001501109214019F918F910F900FBE0F9017
:1001C0001F9018951F920F920FB60F921124109244
:1001D0001601109217010F900FBE0F901F901895E7
:1001E0000E941E010E9416010E94A001FFCF20E084
:1001F00030E003C000002F5F3F4F28173907D0F3CE
:1002000008950F931F93CF93DF938C01C0E0D0E04C
:1002100005C087E490E00E94F7002196C017D1073F
:10022000C0F3DF91CF911F910F9108958AE08093E1
:100230006A001ABE83E089BF789408958FEF8BBB64
:100240008ABB85BB84BB8CE181BB08959BB3809541
:1002500089238BBB08959BB3982B9BBB0895813456
:1002600039F4E62FF0E0E65FFE4F80818BBB089506
:10027000833431F4E62FF0E0E050FF4F808185BBFE
:100280000895813439F4E62FF0E0E65FFE4F808177
:100290008BBB0895833431F4E62FF0E0E050FF4F3C
:1002A000808185BB08956AE070E00E94AA0120E089
:1002B00031E0620F731FFB0140814BBB280F391FD8
:1002C000F901808185BB089590B3892308952BEFB0
:1002D00091E122BB80B3807E8036C9F0803AD1F0B4
:1002E000803CD9F092BB80B3807E8036C9F0803AE2
:1002F000D1F0803CD9F092BB80B3807E8036C9F0CB
:10030000803AD1F0803C29F729E030E017C021E0A5
:1003100030E014C024E030E011C027E030E00EC02F
:1003200022E030E00BC025E030E008C028E030E0FB
:1003300005C023E030E002C026E030E0C9010895A6
:100340001FBC84E08EBD87BF8BED9BE09DBD8CBD47
:1003500078940895AA1BBB1B51E107C0AA1FBB1FBD
:10036000A617B70710F0A61BB70B881F991F5A9541
:10037000A9F780959095BC01CD010895F894FFCF21
:10038000C0F9A4B0999282F8809040792430191273
:0403900002780010DF
:00000001FF
