:100000000C9446000C9450000C9450000C9450003A
:100010000C9450000C9450000C9450000C94500020
:100020000C9450000C9450000C9450000C94500010
:100030000C9450000C9450000C9450000C94500000
:100040000C9450000C9450000C9450000C945000F0
:100050000C9450000C9450000C9450000C945000E0
:100060000C9450000C9450000C9450000C945000D0
:100070000C9450000C9450000C9450000C945000C0
:100080000C9450000C9450000C94500011241FBE8E
:10009000CFEFD0E1DEBFCDBF0E94A2000C94D20012
:1000A0000C9400008FEF8ABB089510929B0088E1AA
:1000B00080939A0086E080939D001092980089E1D9
:1000C00080939900089590919B0095FFFCCF8BBB86
:1000D000089580919B0087FFFCCF80919C0008953C
:1000E000EF92FF92CF93DF93E82EE7017E01F92E86
:1000F000E70102C00E94630089918823D9F7DF914C
:10010000CF91FF90EF9008951F93CF93DF9364E614
:1001100070E00E94AB00EC01862F805D0E946300BE
:10012000CE016AE070E00E94AB00182F862F805D40
:100130000E946300812F805D0E946300DF91CF9158
:100140001F9108958FEF8ABB0E9455000E9469009D
:100150000E946300FBCF97FB092E07260AD077FD8C
:1001600004D00CD006D000201AF4709561957F4F12
:100170000895F6F7909581959F4F0895AA1BBB1B94
:1001800051E107C0AA1FBB1FA617B70710F0A61B97
:10019000B70B881F991F5A95A9F780959095BC01B8
:0801A000CD010895F894FFCF92
:00000001FF
