:100000000C9446000C9465000C9465000C946500FB
:100010000C9465000C9465000C9465000C946500CC
:100020000C9465000C9465000C9465000C946500BC
:100030000C9465000C9465000C94F1000C94650020
:100040000C9465000C9465000C9465000C9465009C
:100050000C9465000C9465000C9465000C9465008C
:100060000C9465000C9465000C9465000C9465007C
:100070000C9465000C9465000C9465000C9465006C
:100080000C9465000C9465000C94650011241FBE4F
:10009000CFEFD0E1DEBFCDBF11E0A0E0B1E0E8E0FE
:1000A000F2E000E00BBF02C007900D92AA30B1074A
:1000B000D9F711E0AAE0B1E001C01D92AC30B10760
:1000C000E1F70E94FD000C9402010C94000020E076
:1000D00030E003C000002F5F3F4F28173907D0F3EF
:1000E00008950F931F93CF93DF938C01C0E0D0E06E
:1000F00005C087E490E00E9467002196C017D107F1
:10010000C0F3DF91CF911F910F910895EF92FF926D
:10011000CF93DF93929884E690E00E9471008599D6
:1001200005C080910101C82FD0E002C0C0E0D0E03E
:10013000869904C080910401C82FD0E0879904C03B
:1001400080910701C82FD0E0929A939884E690E0BE
:100150000E947100859904C080910201C82FD0E0EF
:10016000869904C080910501C82FD0E0879904C00A
:1001700080910801C82FD0E0939A949884E690E08B
:100180000E947100859904C080910301C82FD0E0BE
:10019000869904C080910601C82FD0E0879904C0D9
:1001A00080910901C82FD0E0949ACE01DF91CF91C0
:1001B000FF90EF9008958FEF87BB8CE181BB08958E
:1001C00082E88FBD8BE18EBD8CE087BF0E948600E8
:1001D0009C01220F331F37BD26BD9BBD8ABD78947D
:1001E00008951F920F920FB60F9211241DBC1CBCD4
:1001F0000F900FBE0F901F9018950E94DB000E9479
:08020000E000FFCFF894FFCFEE
:0A02080000EFD4BDB39F8E7E776A2D
:00000001FF
