:100000000C9446000C94CA000C9465000C94650096
:100010000C9465000C9465000C9465000C946500CC
:100020000C9465000C9465000C9465000C946500BC
:100030000C9465000C9465000C9465000C946500AC
:100040000C9465000C9465000C9465000C9465009C
:100050000C9465000C9465000C9465000C9465008C
:100060000C9465000C9465000C9465000C9465007C
:100070000C9465000C9465000C9465000C9465006C
:100080000C9465000C9465000C94650011241FBE4F
:10009000CFEFD0E1DEBFCDBF11E0A0E0B1E0EAE2FA
:1000A000F3E000E00BBF02C007900D92A630B1074D
:1000B000D9F711E0A6E0B1E001C01D92AC30B10764
:1000C000E1F70E9423010C9493010C940000DF934C
:1000D000CF9300D000D0CDB7DEB79C838B831A823C
:1000E000198206C0000089819A8101969A838983CA
:1000F00029813A818B819C812817390798F30F90C9
:100100000F900F900F90CF91DF910895DF93CF93D1
:1001100000D000D0CDB7DEB79C838B831A821982C2
:1001200009C087E490E00E94670089819A81019666
:100130009A83898329813A818B819C812817390789
:1001400080F30F900F900F900F90CF91DF91089553
:10015000DF93CF93CDB7DEB78AE390E02FEFFC01BA
:100160002083CF91DF910895DF93CF93CDB7DEB792
:100170008AE690E022E0FC0120838AE590E0FC0121
:10018000108289E590E021E0FC0120837894CF91F2
:10019000DF9108951F920F920FB60F9200905B00AF
:1001A0000F9211242F938F939F93EF93FF93DF93DD
:1001B000CF93CDB7DEB78AE690E0FC018081823034
:1001C00021F58AE690E023E0FC01208381E090E0C5
:1001D0009093070180930601809108019091090195
:1001E000009739F481E090E0909309018093080131
:1001F0001BC0809108019091090181309105A1F403
:1002000010920901109208010FC08AE690E0FC01EB
:100210008081833049F48AE690E022E0FC0120836B
:100220001092070110920601CF91DF91FF91EF919B
:100230009F918F912F910F9000925B000F900FBEB6
:100240000F901F901895DF93CF93CDB7DEB70E9424
:10025000A8000E94B40007C0000005C0000003C051
:10026000000001C000008BE390E0FC01108280914F
:1002700000019091010128EE33E0A901481B590BC0
:10028000CA010E9467008BE390E02FEFFC012083FE
:1002900080910001909101010E9467008091060108
:1002A0009091070181309105B9F6809108019091F4
:1002B000090181309105C1F4809100019091010103
:1002C000019690930101809300018091000190912B
:1002D0000101F3E0893E9F070CF288EE93E09093D2
:1002E000010180930001BFCF809108019091090125
:1002F000009709F0B5CF809100019091010101971D
:10030000909301018093000180910001909101017F
:10031000181619060CF4A6CF81E090E09093010125
:0A03200080930001A0CFF894FFCFF6
:06032A00F4011E0F0100AA
:00000001FF
