:100000000C9446000C9473000C94CF000C94650083
:100010000C9465000C9465000C9465000C946500CC
:100020000C9465000C9465000C9465000C946500BC
:100030000C9465000C9465000C9467000C946500AA
:100040000C9465000C9465000C9465000C9465009C
:100050000C9465000C9465000C9465000C9465008C
:100060000C9465000C9465000C9465000C9465007C
:100070000C9465000C9465000C9465000C9465006C
:100080000C9465000C9465000C94650011241FBE4F
:10009000CFEFD0E1DEBFCDBF12E0A0E0B1E0E8E7F6
:1000A000F2E100E00BBF02C007900D92A032B10751
:1000B000D9F712E0A0E2B2E001C01D92AC32B10764
:1000C000E1F70E942A010C943A090C9400001F9257
:1000D0000F920FB60F9211241DBC1CBC0F900FBEC7
:1000E0000F901F9018951F920F920FB60F920BB69C
:1000F0000F9211242F933F934F935F936F937F93AE
:100100008F939F93AF93BF93EF93FF9380912002C0
:100110009091210281309105B1F480912202909159
:1001200023020197909323028093220297FF06C037
:1001300089E090E0909323028093220283E460910F
:1001400022020E94DE0180912002909121028230E1
:10015000910591F480910201909103010197909390
:100160000301809302018530910534F485E090E02D
:100170009093030180930201FF91EF91BF91AF91A2
:100180009F918F917F916F915F914F913F912F91AF
:100190000F900BBE0F900FBE0F901F9018951F92DF
:1001A0000F920FB60F920BB60F9211242F933F931D
:1001B0004F935F936F937F938F939F93AF93BF936F
:1001C000EF93FF938091200290912102813091055D
:1001D000A9F4809122029091230201969093230228
:1001E000809322028A30910524F01092230210920B
:1001F000220283E4609122020E94DE0180912002AB
:10020000909121028230910591F4809102019091A8
:1002100003010196909303018093020185319105BA
:1002200034F084E190E09093030180930201FF9108
:10023000EF91BF91AF919F918F917F916F915F915E
:100240004F913F912F910F900BBE0F900FBE0F90CB
:100250001F9018950E94CC010E94AF020E94C40119
:1002600078940E94070290932B0280932A02813097
:10027000910551F490932102809320028FEF0E9408
:10028000DA0180E40E94D50180912A0290912B022C
:100290008230910561F42FEF25BB9093210280936A
:1002A00020028FEF0E94DA0180E80E94D501809140
:1002B0002002909121028230910599F6209102014D
:1002C000309103018091280290912902289FB0016A
:1002D000299F700D389F700D1124882777FD809518
:1002E000982F0E94990660932402709325028093B0
:1002F00026029093270220E030E046E953E40E9472
:10030000F10420E030E044E353E40E94EB0520E0F8
:1003100030E041E653E40E9493040E94F9067BBD5D
:100320006ABD9FCF80E487B987E886B90895806465
:1003300087B9369A349BFECF349A84B195B1392F60
:1003400020E0280F311DC901089520E030E003C0EE
:1003500000002F5F3F4F28173907D0F308950F9300
:100360001F93CF93DF938C01C0E0D0E005C087E4FA
:1003700090E00E94A5012196C017D107C0F3DF913C
:10038000CF911F910F9108958AE080936A001ABE61
:1003900083E089BF789408958FEF8BBB8ABB85BBC0
:1003A00084BB87BB8CE181BB08959BB38095892377
:1003B0008BBB08959BB3982B9BBB0895813439F474
:1003C000E62FF0E0EC5FFE4F80818BBB0895833415
:1003D00031F4E62FF0E0EC5FFE4F808185BB08959D
:1003E0006AE070E00E94DC0824E031E0620F731FD5
:1003F000FB0140814BBB280F391FF901808185BB70
:10040000089590B38923089596B3892308953BEF07
:1004100027EF9FEE32BB80B3807E8036C9F0803AF2
:10042000D1F0803CD9F022BB80B3807E8036C9F009
:10043000803AD1F0803CD9F092BB80B3807E803688
:10044000C9F0803AD1F0803C29F729E030E017C0AC
:1004500021E030E014C024E030E011C027E030E0BB
:100460000EC022E030E00BC025E030E008C028E0FC
:1004700030E005C023E030E002C026E030E0C901F2
:100480000895EF92FF92CF93DF9392988AE090E0E5
:100490000E94A501859B03C0C0E0D0E002C0C3E07C
:1004A000D0E0869902C0C6E0D0E0879902C0C9E0DA
:1004B000D0E0929A93988AE090E00E94A5018599F5
:1004C00002C0C2E0D0E0869902C0C5E0D0E08799C2
:1004D00002C0C8E0D0E0939A94988AE090E00E942D
:1004E000A501859902C0C1E0D0E0869902C0C4E0B0
:1004F000D0E0879902C0C7E0D0E0949ACE01DF91A6
:10050000CF91FF90EF9008953BEF27EF9FEE32BB26
:1005100080B3807E803A99F0803CA1F022BB80B30A
:10052000807E803A91F0803C99F092BB80B3807ECF
:10053000803A89F0803C59F722E030E00EC024E098
:1005400030E00BC021E030E008C026E030E005C01C
:1005500023E030E002C025E030E0C901089582E8E0
:100560008FBD8BE18EBD89E087BF87E893E197BDA2
:1005700086BD7894089592988AE090E00E94A50143
:10058000859904C080EA90E09BBD8ABD869904C02D
:100590008EE291E09BBD8ABD879904C08DEB91E00E
:1005A0009BBD8ABD929A93988AE090E00E94A50133
:1005B000859904C08FEC90E09BBD8ABD869904C0EC
:1005C0008EE591E09BBD8ABD879904C08DEE91E0D8
:1005D0009BBD8ABD939A94988AE090E00E94A50101
:1005E000859904C08FEF90E09BBD8ABD869904C0B9
:1005F0008EE891E09BBD8ABD879904C08CE192E0B2
:100600009BBD8ABD949A08951BB888E18AB986E09B
:10061000809395001092900089E189B908955D9BBF
:10062000FECF8CB908955F9BFECF8CB10895EF92F9
:10063000FF92CF93DF93E82EE7017E01F92EE701C9
:1006400002C00E940F0389918823D9F7DF91CF91CF
:10065000FF90EF9008951F93CF93DF9364E670E0CF
:100660000E94F008EC01862F805D0E940F03CE01EE
:100670006AE070E00E94F008182F862F805D0E94CB
:100680000F03812F805D0E940F03DF91CF911F9197
:100690000895A0E0B0E0EFE4F3E00C940709FC015A
:1006A000EA018081823008F438C1DB019C919230EC
:1006B00008F430C1843059F4943009F02EC191818E
:1006C00011968C911197981709F021C126C1943089
:1006D00009F420C19230B1F4823009F01EC1CA0180
:1006E000AF0128E0DA010D90AD01DC010D92CD01E2
:1006F0002150C1F7DB0111968C91119791818923CB
:1007000089830AC1823009F405C1C280D380DB012C
:1007100012966D907C901397248135814681578184
:100720001496ED90FD900D911C911797C6018619B6
:1007300097095C0197FF04C0AA24BB24A81AB90A30
:10074000B0E2AB16B1040CF061C0181619066CF5D6
:10075000370148010A2C04C09694879477946794D3
:100760000A94D2F781E090E0A0E0B0E00A2C04C047
:10077000880F991FAA1FBB1F0A94D2F70197A109DE
:10078000B1098E219F21A023B123EE24FF248701EC
:10079000E3940097A105B10519F4EE24FF24870125
:1007A000E628F728082919293CC00097D1F1CA0C7E
:1007B000DB1C39014A010A2C04C096948794779473
:1007C00067940A94D2F781E090E0A0E0B0E00A2CB0
:1007D00004C0880F991FAA1FBB1F0A94D2F7019764
:1007E000A109B10982239323A423B52321E030E09A
:1007F00040E050E00097A105B10519F420E030E099
:10080000A90126293729482959290BC06C147D04D0
:1008100024F4EE24FF24870104C0630120E030E0CB
:10082000A9018181FB019181891709F445C08823C1
:1008300049F0D801C701821B930BA40BB50B9C0197
:10084000AD0104C02E193F09400B510B57FD04C0E8
:100850001982DB82CA820BC081E08983DB82CA8273
:1008600050954095309521953F4F4F4F5F4F2C83CA
:100870003D834E835F830DC0880F991FAA1FBB1F46
:100880008C839D83AE83BF838A819B8101979B83E9
:100890008A838C819D81AE81BF819C01AD012150F5
:1008A0003040404050402F3FEFEF3E07EFEF4E0704
:1008B000EFE35E0708F30BC08983DB82CA822E0D4B
:1008C0003F1D401F511F2C833D834E835F8383E078
:1008D00088832C813D814E815F8157FF1DC0DA01E5
:1008E000C90181709070A070B0705695479537958A
:1008F0002795822B932BA42BB52B8C839D83AE83C2
:10090000BF838A819B8101969B838A8305C0E8E12E
:10091000F1E003C0FB0101C0FE01CF01CDB7DEB79E
:10092000EEE00C942309A0E2B0E0E9E9F4E00C94D5
:100930000F0969837A838B839C832D833E834F8346
:10094000588789E0E82EF12CEC0EFD1ECE010196B1
:10095000B7010E9473088E010F5E1F4FCE010596EE
:10096000B8010E947308C701B801AE01475E5F4F2E
:100970000E9449030E94A507A096E6E00C942B096B
:10098000A0E2B0E0E6ECF4E00C940F0969837A830E
:100990008B839C832D833E834F8358878E01075F13
:1009A0001F4FCE010196B8010E94730891E1E92E14
:1009B000F12CEC0EFD1ECE010596B7010E947308C6
:1009C0008A8991E089278A8BC801B701AE01475E09
:1009D0005F4F0E9449030E94A507A096E6E00C9491
:1009E0002B09A0E2B0E0E7EFF4E00C94030969837F
:1009F0007A838B839C832D833E834F835887CE01DC
:100A00000196BE01675F7F4F0E947308CE01059675
:100A1000BE016F5E7F4F0E9473089985923078F017
:100A200089898230C0F0943019F4823041F4CBC00F
:100A3000843019F4923079F4C6C0923051F481E0D8
:100A40002A859A89291709F480E08A87CE010996B8
:100A5000BCC0823051F481E02A859A89291709F4B3
:100A600080E08A8BCE014196B0C06D847E848F84F5
:100A70009888ED88FE880F89188DE0E2F0E080E02C
:100A800090E0DC01AA24BB24650120E030E0A9014C
:100A9000B3016170707061157105D1F02E0D3F1DAD
:100AA000401F511F15012601280E391E4A1E5B1ECC
:100AB00081E090E0A0E0B0E02E153F05400751072F
:100AC00018F080E090E0DC01820D931DA41DB51D9F
:100AD000AA0CBB1CCC1CDD1C17FF09C061E0262E34
:100AE000312C412C512CA228B328C428D528319769
:100AF00049F0EE0CFF1C001F111F96948794779409
:100B00006794C6CF6B897C89EB85FC856E0F7F1F50
:100B10006E5F7F4F7C8F6B8F61E0EA857A89E71784
:100B200009F460E06A8F6B8D7C8D10C0FC01E17070
:100B3000F070309729F0569547953795279550686E
:100B4000B695A795979587956F5F7F4FB7FDEECFC9
:100B50000CC0880F991FAA1FBB1F57FD8160220F71
:100B6000331F441F551F615070408030E0E09E07E6
:100B7000E0E0AE07E0E4BE0760F36B8F7C8F6FE7C9
:100B8000E62EF12C012D112DE822F9220A231B2338
:100B900060E4E616F1040105110561F487FD0AC061
:100BA000211531054105510529F0805C9F4FAF4F5C
:100BB000BF4F80788D8F9E8FAF8FB8A383E0898FD2
:100BC000CE01499602C088E191E00E94A507A09657
:100BD000E2E10C941F09A8E1B0E0E1EFF5E00C942C
:100BE0000B0969837A838B839C832D833E834F8398
:100BF00058878E01075F1F4FCE010196B8010E94F2
:100C0000730881E1E82EF12CEC0EFD1ECE01059655
:100C1000B7010E9473089985923008F483C08989CE
:100C2000823008F47BC02A853A8923272A879430AA
:100C300011F0923021F4981709F06CC071C0843023
:100C400039F41D861E861F86188A1C861B866AC07C
:100C5000823019F484E0898765C08B859C852B8957
:100C60003C89821B930B9C878B872D853E854F8506
:100C70005889ED88FE880F89188D2E153F0540078D
:100C8000510738F4220F331F441F551F01979C87CB
:100C90008B876FE170E0A12CB12CC12CA0E4DA2E7F
:100CA00080E090E0DC012E153F054007510740F041
:100CB0008A299B29AC29BD292E193F09400B510BCC
:100CC000D694C794B794A794220F331F441F551F7F
:100CD0006150704041F76FE7E62EF12C012D112D88
:100CE000E822F9220A231B2360E4E616F104010539
:100CF000110561F487FD0AC0211531054105510533
:100D000029F0805C9F4FAF4FBF4F80788D879E87C3
:100D1000AF87B88B8E01075F1F4F04C0870102C0E9
:100D200008E111E0C8010E94A5076896EAE00C946A
:100D30002709A8E0B0E0EFE9F6E00C940F097B0189
:100D40008C0183E08983D801C7018827B7FD83958B
:100D50009927AA27BB27282F8A83E114F1040105CC
:100D6000110519F482E0898337C08EE190E09C83FD
:100D70008B83222389F080E0E81680E0F80680E08B
:100D8000080780E8180769F110950095F094E09441
:100D9000E11CF11C011D111DED82FE820F831887DD
:100DA000C801B7010E944B079C0121503040121628
:100DB000130694F4022E04C0EE0CFF1C001F111F3A
:100DC0000A94D2F7ED82FE820F8318878EE190E0BD
:100DD000821B930B9C838B83CE0101960E94A507F7
:100DE00004C060E070E080E09FEC2896E6E00C94A0
:100DF0002B09ACE0B0E0EFEFF6E00C941309698347
:100E00007A838B839C83CE010196BE016B5F7F4FFB
:100E10000E9473088D81823081F1823070F18430BC
:100E200021F48E81882369F10AC02F81388537FD2E
:100E300024C06E812F3131053CF0662311F120E092
:100E400030E040E050E821C08EE190E0821B930B3F
:100E500029853A854B855C8504C05695479537951D
:100E600027958A95D2F7662381F050954095309565
:100E700021953F4F4F4F5F4F08C020E030E0A90160
:100E800004C02FEF3FEF4FEF5FE7B901CA012C9687
:100E9000E2E00C942F09AF92BF92CF92DF92EF92D3
:100EA000FF920F931F937B018C0180E0E81680E096
:100EB000F80681E0080780E0180758F4EFEFEE1617
:100EC000F1040105110509F090F480E090E0DC01E7
:100ED00017C0F0E0EF16F0E0FF06F0E00F07F1E0DA
:100EE0001F0750F480E190E0A0E0B0E009C088E086
:100EF00090E0A0E0B0E004C088E190E0A0E0B0E0C5
:100F000020E230E040E050E0281B390B4A0B5B0B3D
:100F10005701680104C0D694C794B794A7948A95E2
:100F2000D2F7D601C501805E9E4FFC018081281B4F
:100F3000310941095109C9011F910F91FF90EF90AB
:100F4000DF90CF90BF90AF900895EF92FF920F93F4
:100F50001F93CF93DF93FC01248135814681578114
:100F600061818081823020F44061EFEFF0E0A3C026
:100F7000843009F49BC0823009F492C021153105F8
:100F80004105510509F48FC00280F381E02D8FEFF8
:100F9000E238F8070CF05AC0C2E8DFEFCE1BDF0BD7
:100FA000CA31D1056CF579018A010C2E04C0169561
:100FB0000795F794E7940A94D2F781E090E0A0E0D7
:100FC000B0E00C2E04C0880F991FAA1FBB1F0A9403
:100FD000D2F70197A109B10982239323A423B52352
:100FE00021E030E040E050E00097A105B10519F4A0
:100FF00020E030E0A9012E293F29402B512B03C0CE
:1010000020E030E0A901DA01C9018F779070A0706B
:10101000B07080349105A105B10539F427FF09C0EE
:10102000205C3F4F4F4F5F4F04C0215C3F4F4F4FFD
:101030005F4FE1E0F0E0203080E0380780E04807D3
:1010400080E4580728F5E0E0F0E022C0E038F10540
:101050006CF5E158FF4FDA01C9018F779070A070ED
:10106000B07080349105A105B10539F427FF09C09E
:10107000205C3F4F4F4F5F4F04C0215C3F4F4F4FAD
:101080005F4F57FF05C05695479537952795319681
:1010900087E056954795379527958A95D1F70BC0E8
:1010A000E0E0F0E005C0E0E0F0E005C0EFEFF0E0E8
:1010B00020E030E0A9018E2F879588278795942F0F
:1010C0009F77679566276795E695E22EA92FA82B4F
:1010D000FE2FF62B622F732F8A2F9F2FCDB7DEB7EF
:1010E000E6E00C942B09DC01FB012C9111963C915C
:1010F000119712968C911297482F4F7750E0982FA6
:10110000991F9927991F13966C911397862F880F13
:10111000892B90E0661F6627661F6183009739F56B
:10112000211531054105510511F482E029C082E8FD
:101130009FEF9383828367E0220F331F441F551F65
:101140006A95D1F783E0808309C0220F331F441FC3
:10115000551F82819381019793838283203080E0A1
:10116000380780E0480780E4580778F320C08F3FB5
:10117000910579F4211531054105510519F484E0F3
:101180008083089544FF03C081E0808310C01082F3
:101190000EC08F5790409383828383E0808387E0E3
:1011A000220F331F441F551F8A95D1F750642483A3
:1011B0003583468357830895AA1BBB1B51E107C0A3
:1011C000AA1FBB1FA617B70710F0A61BB70B881FD7
:1011D000991F5A95A9F780959095BC01CD01089566
:1011E00097FB092E07260AD077FD04D0E5DF06D04D
:1011F00000201AF4709561957F4F0895F6F7909549
:1012000081959F4F08952F923F924F925F926F92D8
:101210007F928F929F92AF92BF92CF92DF92EF9286
:10122000FF920F931F93CF93DF93CDB7DEB7CA1B07
:10123000DB0B0FB6F894DEBF0FBECDBF09942A8832
:10124000398848885F846E847D848C849B84AA84DA
:10125000B984C884DF80EE80FD800C811B81AA8167
:10126000B981CE0FD11D0FB6F894DEBF0FBECDBF32
:08127000ED010895F894FFCF91
:1012780001000A00C0F9A4B0999282F880904079E0
:10128800243019120278001000000000000000004D
:101298000001020203030303040404040404040415
:1012A80005050505050505050505050505050505E6
:1012B80006060606060606060606060606060606C6
:1012C80006060606060606060606060606060606B6
:1012D8000707070707070707070707070707070796
:1012E8000707070707070707070707070707070786
:1012F8000707070707070707070707070707070776
:101308000707070707070707070707070707070765
:101318000808080808080808080808080808080845
:101328000808080808080808080808080808080835
:101338000808080808080808080808080808080825
:101348000808080808080808080808080808080815
:101358000808080808080808080808080808080805
:1013680008080808080808080808080808080808F5
:1013780008080808080808080808080808080808E5
:1013880008080808080808080808080808080808D5
:00000001FF
