:100000000C9446000C9450000C9450000C9450003A
:100010000C9450000C9450000C9450000C94500020
:100020000C9450000C9450000C9450000C94500010
:100030000C9450000C9450000C9450000C94500000
:100040000C9450000C9450000C9450000C945000F0
:100050000C9450000C9450000C9450000C945000E0
:100060000C9450000C9450000C9450000C945000D0
:100070000C9450000C9450000C9450000C945000C0
:100080000C9450000C9450000C94500011241FBE8E
:10009000CFEFD0E1DEBFCDBF0E9452000C94AE0086
:1000A0000C940000FF920F931F93CF93DF930E9455
:1000B000870000E010E0C1E0D0E004C001E017E0FC
:1000C00001C010E0CE01012E02C0880F991F0A94D2
:1000D000E2F78BBB84E6F82E80B38370813019F091
:1000E000823021F402C001E001C000E081E090E034
:1000F0000E949900FA9481F7002329F01123F1F26C
:10010000115001E0DFCF1F5F1830D9F2DBCF8FEF46
:100110008BBB8ABB85BB84BB8CE181BB089520E08F
:1001200030E003C000002F5F3F4F28173907D0F39E
:1001300008950F931F93CF93DF938C01C0E0D0E01D
:1001400005C087E490E00E948F002196C017D10778
:10015000C0F3DF91CF911F910F910895F894FFCFD5
:00000001FF
